S0180000536C61766520536D61727420686F6D652E7372656321
S11300000C9450000C946D000C946D000C946D00D5
S11300100C946D000C946D000C946D000C946D00A8
S11300200C946D000C946D000C94A5020C946D005E
S11300300C946D000C946D000C946D000C946D0088
S11300400C946D000C946D000C946D000C946D0078
S11300500C946D00F301060219022C0252023F02B5
S1130060E601E601E601E601E601E601E601E60154
S1130070E601E60165026A026F02740280027902F7
S1130080E601E601E601E601E601E601E601E60134
S1130090E601E60185028A028F029402A002990217
S11300A011241FBECFE5D8E0DEBFCDBF10E0A0E62F
S11300B0B0E0ECE1F9E002C005900D92A236B10780
S11300C0D9F720E0A2E6B0E001C01D92A736B2073E
S11300D0E1F70E94C5010C948C040C9400003E9A34
S11300E03F9A379A329A319A089597B1907F97B987
S11300F097B1892B87B9369A3699FECF84B195B1D9
S11301000895823419F118F4813439F00895833450
S1130110B1F1843409F44CC00895413059F42AB340
S113012081E090E002C0880F991F6A95E2F7822B64
S11301308ABB08952AB381E090E002C0880F991F1A
S11301406A95E2F7809582238ABB0895413059F479
S113015027B381E090E002C0880F991F6A95E2F707
S1130160822B87BB089527B381E090E002C0880FFB
S1130170991F6A95E2F78095822387BB08954130E1
S113018059F424B381E090E002C0880F991F6A9566
S1130190E2F7822B84BB089524B381E090E002C08F
S11301A0880F991F6A95E2F78095822384BB08958E
S11301B0413059F421B381E090E002C0880F991FC7
S11301C06A95E2F7822B81BB089521B381E090E028
S11301D002C0880F991F6A95E2F78095822381BB3C
S11301E00895823419F118F4813439F00895833470
S11301F0B1F1843409F44CC00895413059F42BB35F
S113020081E090E002C0880F991F6A95E2F7822B83
S11302108BBB08952BB381E090E002C0880F991F37
S11302206A95E2F7809582238BBB0895413059F497
S113023028B381E090E002C0880F991F6A95E2F725
S1130240822B88BB089528B381E090E002C0880F18
S1130250991F6A95E2F78095822388BB08954130FF
S113026059F425B381E090E002C0880F991F6A9584
S1130270E2F7822B85BB089525B381E090E002C0AC
S1130280880F991F6A95E2F78095822385BB0895AC
S1130290413059F422B381E090E002C0880F991FE5
S11302A06A95E2F7822B82BB089522B381E090E045
S11302B002C0880F991F6A95E2F78095822382BB5A
S11302C008958234D9F018F4813431F04DC0833468
S11302D039F18434B9F148C029B381E090E0062EA5
S11302E002C0880F991F0A94E2F730E08223932317
S11302F002C0959587956A95E2F7089526B381E043
S113030090E0062E02C0880F991F0A94E2F730E0AD
S11303108223932302C0959587956A95E2F7089501
S113032023B381E090E0062E02C0880F991F0A943F
S1130330E2F730E08223932302C0959587956A956E
S1130340E2F7089520B381E090E0062E02C0880F02
S1130350991F0A94E2F730E08223932302C0959513
S113036087956A95E2F7089580E0089541E00E9438
S11303708100089541E00E94F100089540E00E9448
S1130380810008950E94610108950E946F000E94F7
S11303903C030E94330364E084E40E94B60165E0F8
S11303A084E40E94B60166E084E40E94B60167E03A
S11303B084E40E94B60162E084E40E94B60163E032
S11303C084E40E94B601CFEFD0E011E08FEF0E94E9
S11303D0370390E0FC017197E632F105B8F7E65D6A
S11303E0FF4F0C94860464E084E40E94C2018823D5
S11303F041F064E084E40E94C201813019F4C12F09
S113040001C0CD2F8C2F0E943703E0CF65E084E438
S11304100E94C201882341F065E084E40E94C20185
S1130420813019F4C12F01C0CD2F8C2F0E943703C6
S1130430CDCF66E084E40E94C201882341F066E0E7
S113044084E40E94C201811103C0C12F01C0CD2FD9
S11304508C2F0E943703BACF67E084E40E94C20164
S1130460882341F067E084E40E94C201813019F4DA
S1130470C12F01C0CD2F8C2F0E943703A7CF62E07C
S113048084E40E94C201882341F062E084E40E9473
S1130490C201813019F4C12F01C0CD2F8C2F0E94CD
S11304A0370394CF63E084E40E94C201882341F0BF
S11304B063E084E40E94C201813019F4C12F01C0B9
S11304C0CD2F8C2F0E94370381CF64E084E40E94F7
S11304D0BA017CCF65E084E40E94BA0177CF66E07C
S11304E084E40E94BA0172CF67E084E40E94BA01F6
S11304F06DCF0E943C0362E084E40E94BA0166CF9F
S113050063E084E40E94BA0161CF64E084E40E9461
S1130510BE015CCF65E084E40E94BE0157CF66E073
S113052084E40E94BE0152CF67E084E40E94BE01CD
S11305304DCF0E94520362E084E40E94BE0146CF84
S113054063E084E40E94BE0141CF1F920F920FB674
S11305500F9211242F933F934F935F936F937F9345
S11305608F939F93AF93BF93EF93FF938091630017
S1130570909164000196909364008093630080914D
S11305806300909164000A9708F45CC010926400C0
S11305901092630080E00E947500BC0180E090E04E
S11305A00E948B0320E030E040E85EE30E941904DF
S11305B00E945C0370936600609365008091600004
S11305C09091610020916500309166000196281792
S11305D0390740F062E084E40E94BA0186E2809325
S11305E0620030C0809160009091610020916500AC
S11305F03091660001978217930740F062E084E42B
S11306000E94BE0186E2809362001CC020916500B6
S1130610309166008091600090916100281739073D
S113062089F480916200863229F462E084E40E94B5
S1130630BA0108C080916200863321F462E084E448
S11306400E94BE01FF91EF91BF91AF919F918F9155
S11306507F916F915F914F913F912F910F900FBEBA
S11306600F901F901895BE9A6E9A689A08958FB944
S1130670779BFECF8FB108958EE48CBF83B78860DB
S113068083BF83B78F7B83BF83B7816083BF83B707
S1130690846083BF83B78D7F83BF789489B782607A
S11306A089BF089583B78E7F83BF83B78D7F83BF50
S11306B083B78B7F83BF08950E94F80388F09F5708
S11306C098F0B92F9927B751B0F0E1F0660F771F72
S11306D0881F991F1AF0BA95C9F714C0B13091F068
S11306E00E941204B1E008950C941204672F782F2D
S11306F08827B85F39F0B93FCCF38695779567952D
S1130700B395D9F73EF490958095709561957F4F98
S11307108F4F9F4F0895E89409C097FB3EF490953E
S11307208095709561957F4F8F4F9F4F9923A9F0C6
S1130730F92F96E9BB279395F69587957795679555
S1130740B795F111F8CFFAF4BB0F11F460FF1BC099
S11307506F5F7F4F8F4F9F4F16C0882311F096E92C
S113076011C0772321F09EE8872F762F05C06623DA
S113077071F096E8862F70E060E02AF09A95660F93
S1130780771F881FDAF7880F9695879597F908954C
S113079097F99F6780E870E060E008959FEF80EC30
S11307A0089500240A9416161706180609060895D3
S11307B000240A9412161306140605060895092E39
S11307C00394000C11F4882352F0BB0F40F4BF2BA8
S11307D011F460FF04C06F5F7F4F8F4F9F4F0895E8
S11307E057FD9058440F551F59F05F3F71F04795DE
S11307F0880F97FB991F61F09F3F79F087950895C3
S1130800121613061406551FF2CF4695F1DF08C0E1
S1130810161617061806991FF1CF869571056105FE
S113082008940895E894BB2766277727CB0197F9A6
S113083008950E942C040C94DF030E94D10338F025
S11308400E94D80320F0952311F00C94C8030C9453
S1130850CE0311240C9413040E94F00370F3959FAB
S1130860C1F3950F50E0551F629FF001729FBB27A3
S1130870F00DB11D639FAA27F00DB11DAA1F649F3F
S11308806627B00DA11D661F829F2227B00DA11DF2
S1130890621F739FB00DA11D621F839FA00D611D78
S11308A0221F749F3327A00D611D231F849F600D99
S11308B0211D822F762F6A2F11249F5750409AF0C2
S11308C0F1F088234AF0EE0FFF1FBB1F661F771F4E
S11308D0881F91505040A9F79E3F510580F00C9419
S11308E0C8030C9413045F3FE4F3983ED4F3869555
S11308F077956795B795F795E7959F5FC1F7FE2BB9
S1130900880F911D9695879597F90895EE0FFF1F0F
S10F09100590F491E02D0994F894FFCFB9
S105091C1800BD
S9030000FC
