:100000000C9434000C9451000C9451000C94510049
:100010000C9451000C9451000C9451000C9451001C
:100020000C9451000C9451000C94BF080C94510096
:100030000C9451000C9451000C9451000C945100FC
:100040000C9451000C9451000C9451000C945100EC
:100050000C945100F8064C07CC07D207D807DE07EE
:10006000E8078E07EE07F30611241FBECFE5D8E0A0
:10007000DEBFCDBF12E0A0E6B0E0E0E5F4E102C0F3
:1000800005900D92AA37B107D9F722E0AAE7B2E0AE
:1000900001C01D92AD37B207E1F70E94DD030C9459
:1000A000260A0C940000823419F118F4813439F0D6
:1000B00008958334B1F1843409F44CC0089541307B
:1000C00059F42AB381E090E002C0880F991F6A9525
:1000D000E2F7822B8ABB08952AB381E090E002C048
:1000E000880F991F6A95E2F7809582238ABB08954D
:1000F000413059F427B381E090E002C0880F991F86
:100100006A95E2F7822B87BB089527B381E090E0E0
:1001100002C0880F991F6A95E2F78095822387BBFA
:100120000895413059F424B381E090E002C0880F73
:10013000991F6A95E2F7822B84BB089524B381E06E
:1001400090E002C0880F991F6A95E2F7809582239C
:1001500084BB0895413059F421B381E090E002C09E
:10016000880F991F6A95E2F7822B81BB089521B30E
:1001700081E090E002C0880F991F6A95E2F78095B0
:10018000822381BB0895823419F118F4813439F047
:1001900008958334B1F1843409F44CC0089541309A
:1001A00059F42BB381E090E002C0880F991F6A9543
:1001B000E2F7822B8BBB08952BB381E090E002C065
:1001C000880F991F6A95E2F7809582238BBB08956B
:1001D000413059F428B381E090E002C0880F991FA4
:1001E0006A95E2F7822B88BB089528B381E090E0FE
:1001F00002C0880F991F6A95E2F78095822388BB19
:100200000895413059F425B381E090E002C0880F91
:10021000991F6A95E2F7822B85BB089525B381E08B
:1002200090E002C0880F991F6A95E2F780958223BB
:1002300085BB0895413059F422B381E090E002C0BB
:10024000880F991F6A95E2F7822B82BB089522B32B
:1002500081E090E002C0880F991F6A95E2F78095CF
:10026000822382BB08958234D9F018F4813431F0AE
:100270004DC0833439F18434B9F148C029B381E0E9
:1002800090E0062E02C0880F991F0A94E2F730E032
:100290008223932302C0959587956A95E2F7089586
:1002A00026B381E090E0062E02C0880F991F0A94C1
:1002B000E2F730E08223932302C0959587956A95F3
:1002C000E2F7089523B381E090E0062E02C0880F84
:1002D000991F0A94E2F730E08223932302C0959598
:1002E00087956A95E2F7089520B381E090E0062EA5
:1002F00002C0880F991F0A94E2F730E0822393230B
:1003000002C0959587956A95E2F7089580E0089573
:10031000823459F018F4813431F00895833439F07F
:10032000843439F008956BBB089568BB089565BBAC
:10033000089562BB0895823499F118F4813441F034
:100340000895833409F454C0843409F479C00895BD
:10035000413099F480B78B7F80BF2AB381E090E071
:1003600002C0880F991F6A95E2F7982F9095922303
:100370009ABB9BB3892B8BBB089520B781E090E09B
:1003800002C0880F991F6A95E2F7922F982B90BFB1
:100390009AB3809598239ABB9BB389238BBB08950E
:1003A000413099F480B78B7F80BF27B381E090E024
:1003B00002C0880F991F6A95E2F7982F90959223B3
:1003C00097BB98B3892B88BB089580B7846080BFA2
:1003D00027B381E090E002C0880F991F6A95E2F789
:1003E0008095922F982397BB98B3892388BB089553
:1003F000413099F480B78B7F80BF24B381E090E0D7
:1004000002C0880F991F6A95E2F7982F9095922362
:1004100094BB95B3892B85BB089580B7846080BF5A
:1004200024B381E090E002C0880F991F6A95E2F73B
:100430008095922F982394BB95B3892385BB08950B
:10044000413099F480B78B7F80BF21B381E090E089
:1004500002C0880F991F6A95E2F7982F9095922312
:1004600091BB92B3892B82BB089580B7846080BF13
:1004700021B381E090E002C0880F991F6A95E2F7EE
:100480008095922F982391BB92B3892382BB0895C4
:10049000E199FECF9FBB8EBBE09A8DB30895E199A1
:1004A000FECF9FBB8EBBE09A8DB3861719F06DBB54
:1004B000E29AE19A0895E199FECF4115510591F034
:1004C000460F571FFB019C01261B370BB9019B01EF
:1004D0002E0F3F1F3FBB2EBBE09A9DB39193E417B5
:1004E000F507A9F70895DC0141155105B9F020E0A1
:1004F00030E090E0E199FECFFD01E20FF31FFFBB7A
:10050000EEBBFB01E20FF31F20812DBBE29AE19AC3
:100510009F5F292F30E02417350760F3089541E0ED
:1005200060E084E40E94530041E061E084E40E94C2
:10053000530041E062E084E40E94530041E063E044
:1005400084E40E94530040E064E084E40E9453008D
:1005500040E065E084E40E94530040E066E084E40B
:100560000E94530040E067E084E40E94530041E0B1
:1005700064E084E40E949B0141E065E084E40E9421
:100580009B0141E066E084E40E949B0141E067E05A
:1005900084E40E949B010895EF92FF920F931F93B2
:1005A000CF93DF93CDB7DEB760970FB6F894DEBF79
:1005B0000FBECDBF80E1E0E6F0E0DE0111960190D4
:1005C0000D928A95E1F7E12CF12C0FEF41E060E00C
:1005D00084E40E94C30041E061E084E40E94C3001F
:1005E00041E062E084E40E94C30041E063E084E40F
:1005F0000E94C3008FE39CE90197F1F700C000005F
:1006000040E06E2D84E40E94C30010E064E0610FBE
:1006100084E40E94330181110FC0F701EE0FFF1F28
:10062000EE0FFF1F81E090E08C0F9D1FE80FF91F78
:10063000E10FF11D008103C01F5F143039F79FEFF8
:10064000E91AF90A84E0E816F10409F0BFCF802F17
:1006500060960FB6F894DEBF0FBECDBFDF91CF918D
:100660001F910F91FF90EF90089541E060E082E4C8
:100670000E94C3008FE99FE00197F1F700C00000DE
:1006800040E060E082E40E94C3008FE99FE00197B0
:10069000F1F700C000000895682F81E40E948801EE
:1006A00040E061E082E40E94C3000E9435030895A7
:1006B00041E060E081E40E94530041E061E081E4B8
:1006C0000E94530041E062E081E40E94530041E057
:1006D00063E081E40E94530041E064E081E40E9411
:1006E000530041E065E081E40E94530041E066E090
:1006F00081E40E94530041E067E081E40E945300DE
:1007000041E060E082E40E94530041E062E082E464
:100710000E94530041E061E082E40E94530040E007
:1007200062E082E40E94C30088E30E944C0381E0FF
:100730000E944C038EE00E944C038FE19EE40197DF
:10074000F1F700C000000895682F81E40E9488013D
:1007500041E061E082E40E94C3000E9435030895F5
:10076000CF93DF93EC018881882331F021960E949A
:10077000A40389918111FBCFDF91CF91089581E08E
:100780000E944C030895813019F48FE7860F06C04C
:10079000823019F48FEB860F01C080E80E944C0371
:1007A000089541E00E945300089541E00E94C30073
:1007B000089540E00E94C3000895CF93DF93CDB722
:1007C000DEB728970FB6F894DEBF0FBECDBF60E04E
:1007D00083E40E94D10361E083E40E94D10363E0DB
:1007E00083E40E94D1030E9458030E948F020E945A
:1007F000F40980E790E00E94B00361E082E00E948B
:10080000C30381E890E00E94B0032FEF39E688E14E
:10081000215030408040E1F700C000000E94BF033B
:1008200080E091E00E944802813039F481E091E05B
:100830000E944802813009F4C6C08DE890E00E9411
:10084000B00361E082E00E94C30387E990E00E9468
:10085000B0039FEFE9E6F8E19150E040F040E1F7A6
:1008600000C000000E94BF0361E082E00E94C30359
:1008700082EA90E00E94B0038FEF89838A838B83A2
:100880008C839E012F5F3F4F790169011CE00E941C
:10089000CC028F3FE1F3F60181936F010E94A40324
:1008A000FFEF22E537E0F15020403040E1F700C093
:1008B0000000612F82E00E94C3038AE20E94A40329
:1008C0008FEF90E7E2E081509040E040E1F700C018
:1008D00000001F5F1031D9F644E050E0BE016F5FA9
:1008E0007F4F82E091E00E94730261E080E091E03E
:1008F0000E944F020E94BF038EEA90E00E94B00364
:10090000FFEF24E33CE0F15020403040E1F700C02D
:1009100000000E94BF0389EB90E00E94B00361E0F9
:1009200082E00E94C30388EC90E00E94B0031CE0C8
:100930000E94CC028F3FE1F3F70181937F010E9477
:10094000A403FFEF22E537E0F15020403040E1F70B
:1009500000C00000612F82E00E94C3038AE20E946F
:10096000A4038FEF90E7E2E081509040E040E1F790
:1009700000C000001F5F1031D9F644E050E0BE0116
:100980006F5F7F4F86E091E00E94730261E081E03B
:1009900091E00E944F020E94BF038EEA90E00E9405
:1009A000B003FFEF24E33CE0F15020403040E1F79A
:1009B00000C000000E94BF0360E08AE091E00E9456
:1009C0004F02B12C05C08AE091E00E944802B82E87
:1009D000F12C33243A940F2EF2E39F2EF02DD32CDA
:1009E0000F2EFAE0CF2EF02D0F2EF9E0AF2EF02DC6
:1009F00080917A02813001F50E94160A10927C02E1
:100A000010927B0210927A0261E083E40E94D90383
:100A100060E083E40E94D9030E94BF0384ED90E06C
:100A20000E94B0038FEF99E6E8E181509040E040EA
:100A3000E1F700C0000002C0F110B3C100E0132DC7
:100A4000F1E0BF1227C00E94BF0384EE90E00E9435
:100A5000B00361E082E00E94C30382EF90E00E9455
:100A6000B00363E083E40E94D5032AEA36EE86E908
:100A700091E02150304080409040D9F7000063E081
:100A800083E40E94D90360E08AE091E00E944F0273
:100A900000E0B12C0E94BF0381E091E00E94B0030E
:100AA00061E082E00E94C3038DE091E00E94B00308
:100AB0001F3F29F40E94CC02182F8F3FD9F380EDFD
:100AC000810F823088F00E94BF038DE191E00E9487
:100AD000B003EFEFF9E628E1E150F0402040E1F704
:100AE00000C000001D2DACCFDD82DE82DF82D88603
:100AF000D982DA82DB82DC82103321F0113309F4EF
:100B0000A6C04BC1892C801A0E94BF0389E291E0E4
:100B10000E94B00361E082E00E94C30384E391E09D
:100B20000E94B0033FEF81EE94E03150804090404E
:100B3000E1F700C000007E01E5E0EE0EF11C1CE0D4
:100B40000E94CC028F3FE1F3F70181937F010E9465
:100B5000A403FFEF22E537E0F15020403040E1F7F9
:100B600000C00000612F82E00E94C3038AE20E945D
:100B7000A4038FEF90E7E2E081509040E040E1F77E
:100B800000C000001F5F1031D9F644E050E0BE0104
:100B90006F5F7F4F82E091E00E945B0244E0BE0104
:100BA0006F5F7F4FCE0105960E94D608813021F5F8
:100BB0000E94BF0380E491E00E94B00361E082E004
:100BC0000E94C30389E291E00E94B003FFEF24E397
:100BD0003CE0F15020403040E1F700C0000060E010
:100BE00083E40E94D5030E94000A0E94BF0300E034
:100BF0001D2DFF24F394D2C00F5F0E94BF038BE42E
:100C000091E00E94B00361E082E00E94C30386E5A8
:100C100091E00E94B003882D0E94A4038FEF99E613
:100C2000E8E181509040E040E1F700C000000E9400
:100C3000BF038A94033008F467CF61E08AE091E053
:100C40000E944F021D2DBB24B394F12CA7C0892C08
:100C5000801A0E94BF0382E691E00E94B00361E027
:100C600082E00E94C3038DE691E00E94B003FFEF93
:100C700021EE34E0F15020403040E1F700C00000A8
:100C80007E0185E0E80EF11C1CE00E94CC028F3F43
:100C9000E1F3F70181937F010E94A403FFEF22E5B6
:100CA00037E0F15020403040E1F700C00000612FF4
:100CB00082E00E94C3038AE20E94A4038FEF90E7C0
:100CC000E2E081509040E040E1F700C000001F5F8B
:100CD0001031D9F644E050E0BE016F5F7F4F86E0EF
:100CE00091E00E945B0244E0BE016B5F7F4FCE014A
:100CF00001960E94D608813029F50E94BF0380E446
:100D000091E00E94B00361E082E00E94C30389E7A2
:100D100091E00E94B003FFEF24E33CE0F15020405B
:100D20003040E1F700C0000061E083E40E94D50399
:100D30000E94000A0E94BF0300E01D2D6894FF245A
:100D4000F1F82CC00F5F0E94BF038BE491E00E947A
:100D5000B00361E082E00E94C30384E891E00E9456
:100D6000B003882D0E94A4038FEF99E6E8E181503B
:100D70009040E040E1F700C000000E94BF038A9469
:100D8000033008F466CF61E08AE091E00E944F02F0
:100D90001D2DBB24B394F12C01C0F12CFF2009F4CC
:100DA0004FCE01E00F2EF7E05F2EF02D68948824DF
:100DB00083F80F2EF6E0EF2EF02D0F2EF3E07F2EAE
:100DC000F02D6894662462F80F2EF5E04F2EF02D7A
:100DD000A6C1FA013197EA30F10508F0A4C1E65D39
:100DE000FF4F0C94200A882309F4FEC0082D97C1F8
:100DF0000E94BF038FE891E00E94B00361E082E0AF
:100E00000E94C303F1E0FF1205C08FE991E00E9448
:100E1000B00307C022E0F21204C08EEA91E00E9403
:100E2000B0038F2D0E94F808182F3FEF80E792E063
:100E3000315080409040E1F700C00000113309F4C8
:100E400076C1123309F475C1133309F474C1143334
:100E500041F4E2E0FE1609F470C1F1E0FF127FC137
:100E60006EC11F3F99F00E94BF038EEB91E00E947C
:100E7000B0032FEF34E38CE0215030408040E1F7A5
:100E800000C000001153143008F449C180917A0267
:100E9000813009F0ADCF43C10E94BF038AEC91E0DD
:100EA0000E94B00361E082E00E94C30387ED91E0FD
:100EB0000E94B0038F2D0E94F808182F9FEFE0E7E3
:100EC000F2E09150E040F040E1F700C000008133D3
:100ED00009F437C1823309F436C1833309F435C1CB
:100EE000843309F434C18F3F99F00E94BF038DE130
:100EF00091E00E94B0032FEF34E38CE021503040AA
:100F00008040E1F700C000001153143008F407C11D
:100F100080917A02882309F4BFCF01C10E94BF03E8
:100F200087EE91E00E94B00361E082E00E94C3037B
:100F300089EF91E00E94B0038F2D0E94F808182FCE
:100F40009FEFE0E7F2E09150E040F040E1F700C0B1
:100F50000000813309F4FDC0823309F4FCC0803302
:100F600009F4FBC08F3F99F00E94BF038DE191E02F
:100F70000E94B0032FEF34E38CE0215030408040DA
:100F8000E1F700C000001153143008F4C8C080918C
:100F90007A02882319F2C3C06F2D872D0E9417098A
:100FA00001E0BDC06F2D862D0E94170901E0B7C07A
:100FB0006F2D842D0E94170901E0B1C06F2D8E2D79
:100FC0000E94170992E0F91609F4A2C002E0A7C036
:100FD0006F2D852D0E94170902E0A1C06F2D8A2D6B
:100FE0000E941709082D9BC00E94BF0389E092E070
:100FF0000E94B0038FED0E94A40383E40E94A40327
:101000006C2D81E00E94C303EFEFF1EE24E0E1508C
:10101000F0402040E1F700C000008F2D0E94F8084A
:101020003FE79AE1E6E031509040E040E1F700C050
:10103000000090917A02913009F46CC010ED180F05
:101040001A3080F00E94BF0385E192E00E94B00355
:10105000FFEF24E33CE0F15020403040E1F700C0D6
:1010600000004FC00E94A4038F2D0E94F8089FE744
:10107000EAE1F6E09150E040F040E1F700C0000006
:1010800090917A02913009F447C000ED080F0A30C0
:1010900080F00E94BF038DE191E00E94B0032FEF2A
:1010A00034E38CE0215030408040E1F700C0000084
:1010B00028C00E94A403110F812F880F880F180FDA
:1010C000010F80E40E94FB099FEFE1EEF4E09150F4
:1010D000E040F040E1F700C00000802F0E94FB09D3
:1010E0000E94BF0381E292E00E94B0032FEF34E33D
:1010F0008CE0215030408040E1F700C00000011139
:101100000DC080917A02882309F46ECF082D07C0A4
:1011100001E005C0082D03C0082D01C0082D8091F5
:101120007A02402F50E0813009F053CE61CC072D78
:10113000F6CF062DF4CF042DF2CF0E2DF0CF02E026
:10114000EECF0E2DECCF052DEACF082DE8CF01E034
:10115000E6CF0C2DE4CF0A2DE2CF02E018CF0E949B
:10116000BF038EEB91E00E94B0039FEFE4E3FCE04D
:101170009150E040F040E1F700C00000D0CF1F9256
:101180000F920FB60F9211248F939F9380917B0241
:1011900090917C02019690937C0280937B029F91B8
:1011A0008F910F900FBE0F901F9018954423D1F090
:1011B000FB013081FC012081321316C0FB01319606
:1011C000DC011196415050E04F5F5F4F640F751F77
:1011D00004C091918D91981309C0E617F707C9F7DC
:1011E00081E0089581E0089580E0089580E0089509
:1011F000CF93C82F80917B0290917C02883B9B40CB
:1012000010F0C13049F080917B0290917C02803DCA
:10121000974038F0C23029F481E080937A028FEF52
:1012200004C00E94CC028F3F29F3CF9108958F9282
:101230009F92AF92BF92CF92DF92EF92FF920F9365
:101240001F93CF93DF93D82FE62E00E0F12C10E010
:101250000F2EF3E18F2EF02D0F2EF5E19F2EF02DA6
:101260000F2EF4E1AF2EF02D0F2EF6E1BF2EF02D54
:101270000F2EF1E1CF2EF02D0F2EF2E1DF2EF02D0B
:101280000E94BF03D53011F128F4D33049F0D43097
:1012900091F047C0D73081F120F1D930C1F141C080
:1012A0008BE292E00E94B00301E30F2EF1E2FF2EE9
:1012B000F02D1C2D36C084E392E00E94B00302E3BF
:1012C0000F2EF2E2FF2EF02D1D2D2BC08DE392E0AC
:1012D0000E94B00303E30F2EF3E2FF2EF02D182D32
:1012E00020C086E492E00E94B00304E30F2EF4E2F3
:1012F000FF2EF02D1A2D15C08FE492E00E94B0034E
:1013000005E30F2EF5E2FF2EF02D192D0AC085E51D
:1013100092E00E94B00306E30F2EF6E2FF2EF02DBE
:101320001B2D812F0E94FB092FEF80E792E02150B7
:1013300080409040E1F700C000008FEF0E94FB0961
:10134000813029F481E692E00E94B00304C084E673
:1013500092E00E94B00361E082E00E94C30388E64D
:1013600092E00E94B0038E2D0E94F808C82F2FEF44
:1013700080E792E0215080409040E1F700C00000FB
:10138000C13321F48F2D0E94FB0921C0C23321F407
:10139000802F0E94FB091BC0CF3FA1F0C033B9F0E2
:1013A0000E94BF0385E192E00E94B0032FEF84E327
:1013B0009CE0215080409040E1F700C00000C05305
:1013C000C33028F080917A02882309F459CFDF9145
:1013D000CF911F910F91FF90EF90DF90CF90BF9032
:1013E000AF909F908F90089587B3806B87BB8DB12E
:1013F00081658DB908958FB9779BFECF8FB1089520
:101400008EE48CBF83B7886083BF83B78F7B83BF35
:1014100083B7816083BF83B78D7F83BF83B78460C9
:1014200083BF789489B7826089BF089583B78E7F20
:1014300083BF83B78D7F83BF83B78B7F83BF0895BF
:10144000EE0FFF1F0590F491E02D0994F894FFCF63
:101450003738392F3435362A3132332D41303D2B50
:1014600057454C434F4D4520544F20534D41525406
:1014700000484F4D452053595354454D006C6F67FC
:10148000696E20666F720066697273742074696D8C
:10149000650041444D494E20504153533A0070611C
:1014A0007373207361766564007365742067756576
:1014B0007374207061737300677565737420706155
:1014C00073733A0053455353494F4E2054494D4589
:1014D0004F5554006C6F67696E20626C6F636B656B
:1014E0006400776169742032307365636F6E647372
:1014F0000053656C656374206D6F646500303A411C
:10150000444D494E20313A47554553540057726F68
:101510006E6720496E7075740041444D494E204DF0
:101520006F646500456E74657220706173733A0074
:10153000526967687420706173730057726F6E67C9
:101540002070617373005452494553204C454654F2
:101550003A004745555354204D4F444500454E549D
:10156000455220504153533A004755455354204D5E
:101570004F4445005472696573206C656674003190
:101580003A526F6F6D3120323A526F6F6D320033C5
:101590003A526F6F6D3320343A4D6F726500333AB3
:1015A000526F6F6D3320343A526F6F6D3400575263
:1015B0004F4E4720494E50555400313A526F6F6D8F
:1015C0003420323A545600333A414952436F6E64E4
:1015D00020343A52455400313A5365742074656D95
:1015E000706572617475726500323A436F6E747221
:1015F0006F6C20303A526574005365742054656DE9
:10160000703A5F5F0057726F6E6720696E70757415
:101610000074656D702053656E7400524F4F4D31EC
:1016200020533A00524F4F4D3220533A00524F4F01
:101630004D3320533A00524F4F4D3420533A00540B
:101640005620533A0041495220434F4E4420533ACA
:10165000004F4E004F464600312D6F6E20322D6FE9
:0A166000666620302D7265740000EC
:00000001FF
